{
  "_format": "hh-sol-artifact-1",
  "contractName": "SimpleERC20Token",
  "sourceName": "contracts/SimpleERC20Token.sol",
  "abi": [
    {
      "inputs": [],
      "stateMutability": "nonpayable",
      "type": "constructor"
    },
    {
      "anonymous": false,
      "inputs": [
        {
          "indexed": true,
          "internalType": "address",
          "name": "tokenOwner",
          "type": "address"
        },
        {
          "indexed": true,
          "internalType": "address",
          "name": "spender",
          "type": "address"
        },
        {
          "indexed": false,
          "internalType": "uint256",
          "name": "tokens",
          "type": "uint256"
        }
      ],
      "name": "Approval",
      "type": "event"
    },
    {
      "anonymous": false,
      "inputs": [
        {
          "indexed": true,
          "internalType": "address",
          "name": "from",
          "type": "address"
        },
        {
          "indexed": true,
          "internalType": "address",
          "name": "to",
          "type": "address"
        },
        {
          "indexed": false,
          "internalType": "uint256",
          "name": "tokens",
          "type": "uint256"
        }
      ],
      "name": "Transfer",
      "type": "event"
    },
    {
      "inputs": [
        {
          "internalType": "address",
          "name": "_owner",
          "type": "address"
        },
        {
          "internalType": "address",
          "name": "_spender",
          "type": "address"
        }
      ],
      "name": "allowance",
      "outputs": [
        {
          "internalType": "uint256",
          "name": "remaining",
          "type": "uint256"
        }
      ],
      "stateMutability": "view",
      "type": "function"
    },
    {
      "inputs": [
        {
          "internalType": "address",
          "name": "_spender",
          "type": "address"
        },
        {
          "internalType": "uint256",
          "name": "_value",
          "type": "uint256"
        }
      ],
      "name": "approve",
      "outputs": [
        {
          "internalType": "bool",
          "name": "success",
          "type": "bool"
        }
      ],
      "stateMutability": "nonpayable",
      "type": "function"
    },
    {
      "inputs": [
        {
          "internalType": "address",
          "name": "_owner",
          "type": "address"
        }
      ],
      "name": "balanceOf",
      "outputs": [
        {
          "internalType": "uint256",
          "name": "balance",
          "type": "uint256"
        }
      ],
      "stateMutability": "view",
      "type": "function"
    },
    {
      "inputs": [],
      "name": "decimals",
      "outputs": [
        {
          "internalType": "uint8",
          "name": "",
          "type": "uint8"
        }
      ],
      "stateMutability": "view",
      "type": "function"
    },
    {
      "inputs": [
        {
          "internalType": "uint256",
          "name": "_value",
          "type": "uint256"
        }
      ],
      "name": "mint",
      "outputs": [
        {
          "internalType": "bool",
          "name": "success",
          "type": "bool"
        }
      ],
      "stateMutability": "nonpayable",
      "type": "function"
    },
    {
      "inputs": [],
      "name": "name",
      "outputs": [
        {
          "internalType": "string",
          "name": "",
          "type": "string"
        }
      ],
      "stateMutability": "view",
      "type": "function"
    },
    {
      "inputs": [],
      "name": "symbol",
      "outputs": [
        {
          "internalType": "string",
          "name": "",
          "type": "string"
        }
      ],
      "stateMutability": "view",
      "type": "function"
    },
    {
      "inputs": [],
      "name": "totalSupply",
      "outputs": [
        {
          "internalType": "uint256",
          "name": "",
          "type": "uint256"
        }
      ],
      "stateMutability": "view",
      "type": "function"
    },
    {
      "inputs": [
        {
          "internalType": "address",
          "name": "_to",
          "type": "address"
        },
        {
          "internalType": "uint256",
          "name": "_value",
          "type": "uint256"
        }
      ],
      "name": "transfer",
      "outputs": [
        {
          "internalType": "bool",
          "name": "success",
          "type": "bool"
        }
      ],
      "stateMutability": "nonpayable",
      "type": "function"
    },
    {
      "inputs": [
        {
          "internalType": "address",
          "name": "_from",
          "type": "address"
        },
        {
          "internalType": "address",
          "name": "_to",
          "type": "address"
        },
        {
          "internalType": "uint256",
          "name": "_value",
          "type": "uint256"
        }
      ],
      "name": "transferFrom",
      "outputs": [
        {
          "internalType": "bool",
          "name": "success",
          "type": "bool"
        }
      ],
      "stateMutability": "nonpayable",
      "type": "function"
    }
  ],
  "bytecode": "0x60806040523480156200001157600080fd5b506040518060400160405280601381526020017f53696d706c654552433230546f6b656e4853450000000000000000000000000081525060009081620000589190620003f5565b506040518060400160405280600781526020017f5345524348534500000000000000000000000000000000000000000000000000815250600190816200009f9190620003f5565b506005600260006101000a81548160ff021916908360ff160217905550612710600581905550600554600360003373ffffffffffffffffffffffffffffffffffffffff1673ffffffffffffffffffffffffffffffffffffffff168152602001908152602001600020819055503373ffffffffffffffffffffffffffffffffffffffff16600073ffffffffffffffffffffffffffffffffffffffff167fddf252ad1be2c89b69c2b068fc378daa952ba7f163c4a11628f55a4df523b3ef6005546040516200016d9190620004ed565b60405180910390a36200050a565b600081519050919050565b7f4e487b7100000000000000000000000000000000000000000000000000000000600052604160045260246000fd5b7f4e487b7100000000000000000000000000000000000000000000000000000000600052602260045260246000fd5b60006002820490506001821680620001fd57607f821691505b602082108103620002135762000212620001b5565b5b50919050565b60008190508160005260206000209050919050565b60006020601f8301049050919050565b600082821b905092915050565b6000600883026200027d7fffffffffffffffffffffffffffffffffffffffffffffffffffffffffffffffff826200023e565b6200028986836200023e565b95508019841693508086168417925050509392505050565b6000819050919050565b6000819050919050565b6000620002d6620002d0620002ca84620002a1565b620002ab565b620002a1565b9050919050565b6000819050919050565b620002f283620002b5565b6200030a6200030182620002dd565b8484546200024b565b825550505050565b600090565b6200032162000312565b6200032e818484620002e7565b505050565b5b8181101562000356576200034a60008262000317565b60018101905062000334565b5050565b601f821115620003a5576200036f8162000219565b6200037a846200022e565b810160208510156200038a578190505b620003a262000399856200022e565b83018262000333565b50505b505050565b600082821c905092915050565b6000620003ca60001984600802620003aa565b1980831691505092915050565b6000620003e58383620003b7565b9150826002028217905092915050565b62000400826200017b565b67ffffffffffffffff8111156200041c576200041b62000186565b5b620004288254620001e4565b620004358282856200035a565b600060209050601f8311600181146200046d576000841562000458578287015190505b620004648582620003d7565b865550620004d4565b601f1984166200047d8662000219565b60005b82811015620004a75784890151825560018201915060208501945060208101905062000480565b86831015620004c75784890151620004c3601f891682620003b7565b8355505b6001600288020188555050505b505050505050565b620004e781620002a1565b82525050565b6000602082019050620005046000830184620004dc565b92915050565b61123b806200051a6000396000f3fe608060405234801561001057600080fd5b506004361061009e5760003560e01c806370a082311161006657806370a082311461015d57806395d89b411461018d578063a0712d68146101ab578063a9059cbb146101db578063dd62ed3e1461020b5761009e565b806306fdde03146100a3578063095ea7b3146100c157806318160ddd146100f157806323b872dd1461010f578063313ce5671461013f575b600080fd5b6100ab61023b565b6040516100b89190610db7565b60405180910390f35b6100db60048036038101906100d69190610e72565b6102c9565b6040516100e89190610ecd565b60405180910390f35b6100f9610407565b6040516101069190610ef7565b60405180910390f35b61012960048036038101906101249190610f12565b610411565b6040516101369190610ecd565b60405180910390f35b610147610812565b6040516101549190610f81565b60405180910390f35b61017760048036038101906101729190610f9c565b610825565b6040516101849190610ef7565b60405180910390f35b61019561086e565b6040516101a29190610db7565b60405180910390f35b6101c560048036038101906101c09190610fc9565b6108fc565b6040516101d29190610ecd565b60405180910390f35b6101f560048036038101906101f09190610e72565b6109c5565b6040516102029190610ecd565b60405180910390f35b61022560048036038101906102209190610ff6565b610ca0565b6040516102329190610ef7565b60405180910390f35b6000805461024890611065565b80601f016020809104026020016040519081016040528092919081815260200182805461027490611065565b80156102c15780601f10610296576101008083540402835291602001916102c1565b820191906000526020600020905b8154815290600101906020018083116102a457829003601f168201915b505050505081565b6000600360003373ffffffffffffffffffffffffffffffffffffffff1673ffffffffffffffffffffffffffffffffffffffff1681526020019081526020016000205482111561031757600080fd5b81600460003373ffffffffffffffffffffffffffffffffffffffff1673ffffffffffffffffffffffffffffffffffffffff16815260200190815260200160002060008573ffffffffffffffffffffffffffffffffffffffff1673ffffffffffffffffffffffffffffffffffffffff168152602001908152602001600020819055508273ffffffffffffffffffffffffffffffffffffffff163373ffffffffffffffffffffffffffffffffffffffff167f8c5be1e5ebec7d5bd14f71427d1e84f3dd0314c0f7b2291e5b200ac8c7c3b925846040516103f59190610ef7565b60405180910390a36001905092915050565b6000600554905090565b6000600360008473ffffffffffffffffffffffffffffffffffffffff1673ffffffffffffffffffffffffffffffffffffffff1681526020019081526020016000205482600360008673ffffffffffffffffffffffffffffffffffffffff1673ffffffffffffffffffffffffffffffffffffffff1681526020019081526020016000205461049e91906110c5565b10156104a957600080fd5b600360008573ffffffffffffffffffffffffffffffffffffffff1673ffffffffffffffffffffffffffffffffffffffff168152602001908152602001600020548211156104f557600080fd5b600460008573ffffffffffffffffffffffffffffffffffffffff1673ffffffffffffffffffffffffffffffffffffffff16815260200190815260200160002060003373ffffffffffffffffffffffffffffffffffffffff1673ffffffffffffffffffffffffffffffffffffffff1681526020019081526020016000205482111561057e57600080fd5b81600360008573ffffffffffffffffffffffffffffffffffffffff1673ffffffffffffffffffffffffffffffffffffffff168152602001908152602001600020546105c991906110c5565b600360008573ffffffffffffffffffffffffffffffffffffffff1673ffffffffffffffffffffffffffffffffffffffff1681526020019081526020016000208190555081600360008673ffffffffffffffffffffffffffffffffffffffff1673ffffffffffffffffffffffffffffffffffffffff1681526020019081526020016000205461065791906110f9565b600360008673ffffffffffffffffffffffffffffffffffffffff1673ffffffffffffffffffffffffffffffffffffffff1681526020019081526020016000208190555081600460008673ffffffffffffffffffffffffffffffffffffffff1673ffffffffffffffffffffffffffffffffffffffff16815260200190815260200160002060003373ffffffffffffffffffffffffffffffffffffffff1673ffffffffffffffffffffffffffffffffffffffff1681526020019081526020016000205461072291906110f9565b600460008673ffffffffffffffffffffffffffffffffffffffff1673ffffffffffffffffffffffffffffffffffffffff16815260200190815260200160002060003373ffffffffffffffffffffffffffffffffffffffff1673ffffffffffffffffffffffffffffffffffffffff168152602001908152602001600020819055508273ffffffffffffffffffffffffffffffffffffffff168473ffffffffffffffffffffffffffffffffffffffff167fddf252ad1be2c89b69c2b068fc378daa952ba7f163c4a11628f55a4df523b3ef846040516107ff9190610ef7565b60405180910390a3600190509392505050565b600260009054906101000a900460ff1681565b6000600360008373ffffffffffffffffffffffffffffffffffffffff1673ffffffffffffffffffffffffffffffffffffffff168152602001908152602001600020549050919050565b6001805461087b90611065565b80601f01602080910402602001604051908101604052809291908181526020018280546108a790611065565b80156108f45780601f106108c9576101008083540402835291602001916108f4565b820191906000526020600020905b8154815290600101906020018083116108d757829003601f168201915b505050505081565b60006005548260055461090f91906110c5565b101561091a57600080fd5b8160055461092891906110c5565b60058190555081600360003373ffffffffffffffffffffffffffffffffffffffff1673ffffffffffffffffffffffffffffffffffffffff1681526020019081526020016000205461097991906110c5565b600360003373ffffffffffffffffffffffffffffffffffffffff1673ffffffffffffffffffffffffffffffffffffffff1681526020019081526020016000208190555060019050919050565b6000600360003373ffffffffffffffffffffffffffffffffffffffff1673ffffffffffffffffffffffffffffffffffffffff16815260200190815260200160002054821115610a49576040517f08c379a0000000000000000000000000000000000000000000000000000000008152600401610a4090611179565b60405180910390fd5b600360008473ffffffffffffffffffffffffffffffffffffffff1673ffffffffffffffffffffffffffffffffffffffff1681526020019081526020016000205482600360008673ffffffffffffffffffffffffffffffffffffffff1673ffffffffffffffffffffffffffffffffffffffff16815260200190815260200160002054610ad491906110c5565b1015610b15576040517f08c379a0000000000000000000000000000000000000000000000000000000008152600401610b0c906111e5565b60405180910390fd5b81600360008573ffffffffffffffffffffffffffffffffffffffff1673ffffffffffffffffffffffffffffffffffffffff16815260200190815260200160002054610b6091906110c5565b600360008573ffffffffffffffffffffffffffffffffffffffff1673ffffffffffffffffffffffffffffffffffffffff1681526020019081526020016000208190555081600360003373ffffffffffffffffffffffffffffffffffffffff1673ffffffffffffffffffffffffffffffffffffffff16815260200190815260200160002054610bee91906110f9565b600360003373ffffffffffffffffffffffffffffffffffffffff1673ffffffffffffffffffffffffffffffffffffffff168152602001908152602001600020819055508273ffffffffffffffffffffffffffffffffffffffff163373ffffffffffffffffffffffffffffffffffffffff167fddf252ad1be2c89b69c2b068fc378daa952ba7f163c4a11628f55a4df523b3ef84604051610c8e9190610ef7565b60405180910390a36001905092915050565b6000600460008473ffffffffffffffffffffffffffffffffffffffff1673ffffffffffffffffffffffffffffffffffffffff16815260200190815260200160002060008373ffffffffffffffffffffffffffffffffffffffff1673ffffffffffffffffffffffffffffffffffffffff16815260200190815260200160002054905092915050565b600081519050919050565b600082825260208201905092915050565b60005b83811015610d61578082015181840152602081019050610d46565b60008484015250505050565b6000601f19601f8301169050919050565b6000610d8982610d27565b610d938185610d32565b9350610da3818560208601610d43565b610dac81610d6d565b840191505092915050565b60006020820190508181036000830152610dd18184610d7e565b905092915050565b600080fd5b600073ffffffffffffffffffffffffffffffffffffffff82169050919050565b6000610e0982610dde565b9050919050565b610e1981610dfe565b8114610e2457600080fd5b50565b600081359050610e3681610e10565b92915050565b6000819050919050565b610e4f81610e3c565b8114610e5a57600080fd5b50565b600081359050610e6c81610e46565b92915050565b60008060408385031215610e8957610e88610dd9565b5b6000610e9785828601610e27565b9250506020610ea885828601610e5d565b9150509250929050565b60008115159050919050565b610ec781610eb2565b82525050565b6000602082019050610ee26000830184610ebe565b92915050565b610ef181610e3c565b82525050565b6000602082019050610f0c6000830184610ee8565b92915050565b600080600060608486031215610f2b57610f2a610dd9565b5b6000610f3986828701610e27565b9350506020610f4a86828701610e27565b9250506040610f5b86828701610e5d565b9150509250925092565b600060ff82169050919050565b610f7b81610f65565b82525050565b6000602082019050610f966000830184610f72565b92915050565b600060208284031215610fb257610fb1610dd9565b5b6000610fc084828501610e27565b91505092915050565b600060208284031215610fdf57610fde610dd9565b5b6000610fed84828501610e5d565b91505092915050565b6000806040838503121561100d5761100c610dd9565b5b600061101b85828601610e27565b925050602061102c85828601610e27565b9150509250929050565b7f4e487b7100000000000000000000000000000000000000000000000000000000600052602260045260246000fd5b6000600282049050600182168061107d57607f821691505b6020821081036110905761108f611036565b5b50919050565b7f4e487b7100000000000000000000000000000000000000000000000000000000600052601160045260246000fd5b60006110d082610e3c565b91506110db83610e3c565b92508282019050808211156110f3576110f2611096565b5b92915050565b600061110482610e3c565b915061110f83610e3c565b925082820390508181111561112757611126611096565b5b92915050565b7f4e6f7420656e6f75676820746f6b656e73000000000000000000000000000000600082015250565b6000611163601183610d32565b915061116e8261112d565b602082019050919050565b6000602082019050818103600083015261119281611156565b9050919050565b7f4e65676174697665206e756d626572206f6620746f6b656e7300000000000000600082015250565b60006111cf601983610d32565b91506111da82611199565b602082019050919050565b600060208201905081810360008301526111fe816111c2565b905091905056fea264697066735822122040af64c8b0d9a8a503066789a7f3d96831d701caf5fc40b5c36831ee3631e13064736f6c63430008110033",
  "linkReferences": {},
  "deployedLinkReferences": {}
}