{
  "_format": "hh-sol-artifact-1",
  "contractName": "MyMapper",
  "sourceName": "contracts/MyMapper.sol",
  "abi": [
    {
      "anonymous": false,
      "inputs": [
        {
          "indexed": true,
          "internalType": "address",
          "name": "_from",
          "type": "address"
        },
        {
          "indexed": true,
          "internalType": "address",
          "name": "_key",
          "type": "address"
        }
      ],
      "name": "Delete",
      "type": "event"
    },
    {
      "anonymous": false,
      "inputs": [
        {
          "indexed": true,
          "internalType": "address",
          "name": "_from",
          "type": "address"
        },
        {
          "indexed": true,
          "internalType": "address",
          "name": "_key",
          "type": "address"
        },
        {
          "components": [
            {
              "internalType": "string",
              "name": "text",
              "type": "string"
            },
            {
              "internalType": "int256",
              "name": "num",
              "type": "int256"
            },
            {
              "internalType": "bool",
              "name": "flag",
              "type": "bool"
            }
          ],
          "indexed": false,
          "internalType": "struct MyMapper.MyStructItem",
          "name": "_value",
          "type": "tuple"
        }
      ],
      "name": "Set",
      "type": "event"
    },
    {
      "inputs": [
        {
          "internalType": "address",
          "name": "key",
          "type": "address"
        }
      ],
      "name": "deleteValue",
      "outputs": [
        {
          "internalType": "bool",
          "name": "ok",
          "type": "bool"
        }
      ],
      "stateMutability": "nonpayable",
      "type": "function"
    },
    {
      "inputs": [
        {
          "internalType": "address",
          "name": "key",
          "type": "address"
        }
      ],
      "name": "getValue",
      "outputs": [
        {
          "components": [
            {
              "internalType": "string",
              "name": "text",
              "type": "string"
            },
            {
              "internalType": "int256",
              "name": "num",
              "type": "int256"
            },
            {
              "internalType": "bool",
              "name": "flag",
              "type": "bool"
            }
          ],
          "internalType": "struct MyMapper.MyStructItem",
          "name": "",
          "type": "tuple"
        }
      ],
      "stateMutability": "view",
      "type": "function"
    },
    {
      "inputs": [
        {
          "internalType": "address",
          "name": "key",
          "type": "address"
        },
        {
          "internalType": "string",
          "name": "str",
          "type": "string"
        },
        {
          "internalType": "int256",
          "name": "num",
          "type": "int256"
        },
        {
          "internalType": "bool",
          "name": "flag",
          "type": "bool"
        }
      ],
      "name": "setValue",
      "outputs": [
        {
          "internalType": "bool",
          "name": "ok",
          "type": "bool"
        }
      ],
      "stateMutability": "nonpayable",
      "type": "function"
    }
  ],
  "bytecode": "0x608060405234801561001057600080fd5b50610cb6806100206000396000f3fe608060405234801561001057600080fd5b50600436106100415760003560e01c80633ccc05221461004657806358421e5214610076578063ea13b757146100a6575b600080fd5b610060600480360381019061005b9190610532565b6100d6565b60405161006d9190610673565b60405180910390f35b610090600480360381019061008b9190610752565b6101e5565b60405161009d91906107e9565b60405180910390f35b6100c060048036038101906100bb9190610532565b610378565b6040516100cd91906107e9565b60405180910390f35b6100de61044a565b6000808373ffffffffffffffffffffffffffffffffffffffff1673ffffffffffffffffffffffffffffffffffffffff16815260200190815260200160002060405180606001604052908160008201805461013790610833565b80601f016020809104026020016040519081016040528092919081815260200182805461016390610833565b80156101b05780601f10610185576101008083540402835291602001916101b0565b820191906000526020600020905b81548152906001019060200180831161019357829003601f168201915b50505050508152602001600182015481526020016002820160009054906101000a900460ff1615151515815250509050919050565b6000604051806060016040528086868080601f016020809104026020016040519081016040528093929190818152602001838380828437600081840152601f19601f8201169050808301925050505050505081526020018481526020018315158152506000808873ffffffffffffffffffffffffffffffffffffffff1673ffffffffffffffffffffffffffffffffffffffff168152602001908152602001600020600082015181600001908161029b9190610a49565b506020820151816001015560408201518160020160006101000a81548160ff0219169083151502179055509050508573ffffffffffffffffffffffffffffffffffffffff163373ffffffffffffffffffffffffffffffffffffffff167f733842f4f7cb3deaa29c1aac3eb1f94c03728488f3c0b42512dc1af76bc3b8a26000808a73ffffffffffffffffffffffffffffffffffffffff1673ffffffffffffffffffffffffffffffffffffffff1681526020019081526020016000206040516103639190610c5e565b60405180910390a36001905095945050505050565b60008060008373ffffffffffffffffffffffffffffffffffffffff1673ffffffffffffffffffffffffffffffffffffffff168152602001908152602001600020600080820160006103c9919061046d565b60018201600090556002820160006101000a81549060ff021916905550508173ffffffffffffffffffffffffffffffffffffffff163373ffffffffffffffffffffffffffffffffffffffff167f53d634d74e7e297546964c3b38ed502b9fc1f6b89fc43c6abc236a00269df58760405160405180910390a360019050919050565b604051806060016040528060608152602001600081526020016000151581525090565b50805461047990610833565b6000825580601f1061048b57506104aa565b601f0160209004906000526020600020908101906104a991906104ad565b5b50565b5b808211156104c65760008160009055506001016104ae565b5090565b600080fd5b600080fd5b600073ffffffffffffffffffffffffffffffffffffffff82169050919050565b60006104ff826104d4565b9050919050565b61050f816104f4565b811461051a57600080fd5b50565b60008135905061052c81610506565b92915050565b600060208284031215610548576105476104ca565b5b60006105568482850161051d565b91505092915050565b600081519050919050565b600082825260208201905092915050565b60005b8381101561059957808201518184015260208101905061057e565b60008484015250505050565b6000601f19601f8301169050919050565b60006105c18261055f565b6105cb818561056a565b93506105db81856020860161057b565b6105e4816105a5565b840191505092915050565b6000819050919050565b610602816105ef565b82525050565b60008115159050919050565b61061d81610608565b82525050565b6000606083016000830151848203600086015261064082826105b6565b915050602083015161065560208601826105f9565b5060408301516106686040860182610614565b508091505092915050565b6000602082019050818103600083015261068d8184610623565b905092915050565b600080fd5b600080fd5b600080fd5b60008083601f8401126106ba576106b9610695565b5b8235905067ffffffffffffffff8111156106d7576106d661069a565b5b6020830191508360018202830111156106f3576106f261069f565b5b9250929050565b610703816105ef565b811461070e57600080fd5b50565b600081359050610720816106fa565b92915050565b61072f81610608565b811461073a57600080fd5b50565b60008135905061074c81610726565b92915050565b60008060008060006080868803121561076e5761076d6104ca565b5b600061077c8882890161051d565b955050602086013567ffffffffffffffff81111561079d5761079c6104cf565b5b6107a9888289016106a4565b945094505060406107bc88828901610711565b92505060606107cd8882890161073d565b9150509295509295909350565b6107e381610608565b82525050565b60006020820190506107fe60008301846107da565b92915050565b7f4e487b7100000000000000000000000000000000000000000000000000000000600052602260045260246000fd5b6000600282049050600182168061084b57607f821691505b60208210810361085e5761085d610804565b5b50919050565b7f4e487b7100000000000000000000000000000000000000000000000000000000600052604160045260246000fd5b60008190508160005260206000209050919050565b60006020601f8301049050919050565b600082821b905092915050565b6000600883026108f57fffffffffffffffffffffffffffffffffffffffffffffffffffffffffffffffff826108b8565b6108ff86836108b8565b95508019841693508086168417925050509392505050565b6000819050919050565b6000819050919050565b600061094661094161093c84610917565b610921565b610917565b9050919050565b6000819050919050565b6109608361092b565b61097461096c8261094d565b8484546108c5565b825550505050565b600090565b61098961097c565b610994818484610957565b505050565b5b818110156109b8576109ad600082610981565b60018101905061099a565b5050565b601f8211156109fd576109ce81610893565b6109d7846108a8565b810160208510156109e6578190505b6109fa6109f2856108a8565b830182610999565b50505b505050565b600082821c905092915050565b6000610a2060001984600802610a02565b1980831691505092915050565b6000610a398383610a0f565b9150826002028217905092915050565b610a528261055f565b67ffffffffffffffff811115610a6b57610a6a610864565b5b610a758254610833565b610a808282856109bc565b600060209050601f831160018114610ab35760008415610aa1578287015190505b610aab8582610a2d565b865550610b13565b601f198416610ac186610893565b60005b82811015610ae957848901518255600182019150602085019450602081019050610ac4565b86831015610b065784890151610b02601f891682610a0f565b8355505b6001600288020188555050505b505050505050565b60008154610b2881610833565b610b32818661056a565b94506001821660008114610b4d5760018114610b6357610b96565b60ff198316865281151560200286019350610b96565b610b6c85610893565b60005b83811015610b8e57815481890152600182019150602081019050610b6f565b808801955050505b50505092915050565b60008160001c9050919050565b6000819050919050565b6000610bc9610bc483610b9f565b610bac565b9050919050565b600060ff82169050919050565b6000610bf0610beb83610b9f565b610bd0565b9050919050565b60006060830160008084018583036000870152610c148382610b1b565b92505060018401549050610c2781610bb6565b610c3460208701826105f9565b5060028401549050610c4581610bdd565b610c526040870182610614565b50819250505092915050565b60006020820190508181036000830152610c788184610bf7565b90509291505056fea2646970667358221220e723648cae975c2820df871f65e56ec9d4baed99117adeb3b7201d62df2f27e964736f6c63430008110033",
  "linkReferences": {},
  "deployedLinkReferences": {}
}